S014000063335F6669656C64666172652E7372656379
S11300000C9402010C9423010C9423010C942301FD
S11300100C9423010C9423010C9423010C942301CC
S11300200C9423010C9423010C94C6010C94EB0151
S11300300C9423010C9423010C9423010C942301AC
S11300400C9423010C9423010C9423010C9423019C
S11300500C9423010C9423010C9423010C9423018C
S11300600C9423010C9423010C9423010C9423017C
S11300700C9423010C9423010C9423010C9423016C
S11300800C9423010C9423010C9423010C9423015C
S11300900C9423010C9423010C9423010C9423014C
S11300A00C9423010C9423010C9423010C9423013C
S11300B00C9423010C9423010C9423010C9423012C
S11300C00C9423010C9423010C9423010C9423011C
S11300D00C9423010C9423010C9423010C9423010C
S11300E00C9423010C9423010C9483050C94230198
S11300F00C9423010C9423010C9423010C942301EC
S11301000C9423010C9423010C9423010C942301DB
S11301100C9423010C9423010C9423010C942301CB
S11301200C9423010C9423010C9423010C942301BB
S11301300C9423010C9423010C9423010C942301AB
S11301400C9423010C9423010C9423010C9423019B
S11301500C9423010C9423010C9423010C9423018B
S11301600C9423010C9423010C9423010C9423017B
S11301700C9423010C9423010C9423010C9423016B
S11301800C9423010C9423010C9423010C9423015B
S11301900C9423010C9423010C9423010C9423014B
S11301A00C9423010C9423010C9423010C9423013B
S11301B00C9423010C9423010C9423010C9423012B
S11301C00C9423010C9423010C9423010C9423011B
S11301D00C9423010C9423010C9423010C9423010B
S11301E00C9423010C9423010C9423010C942301FB
S11301F00C9423010C9423010C9423010C940B0202
S11302000C94230211241FBECFEFCDBFDFE9DEBF64
S113021000E00CBF17E2A0E0B0E2ECE0FEE100E099
S11302200BBF02C007900D92AC37B107D9F72BE290
S1130230ACE7B7E201C01D92A638B207E1F70E940D
S1130240A6090C94040F0C940000AF92BF92CF92B5
S1130250DF92EF92FF920F931F93CF93DF935B0193
S11302607A016901BA010E94B20B0097D9F0F80132
S1130270808391831C141D04C4F40E5F1F4FC1E0DE
S1130280D0E008C02196F801819391938F01CC1698
S1130290DD066CF0B70180E090E00E94B20B00979D
S11302A089F705C0C0E0D0E002C0C1E0D0E0F501AC
S11302B0C083D183DF91CF911F910F91FF90EF9075
S11302C0DF90CF90BF90AF900895E2EAF0E0808194
S11302D0876080838BE080934300E2E0F4E08081D8
S11302E08160808380E290E080930A0490930B0401
S11302F081E080930004789408950F931F93CF9323
S1130300DF9300D01F92CDB7DEB7BC018091862960
S113031090918729A0918829B091892989839A830A
S1130320AB83BC83CB01770FAA0BBB0BBC01CD0104
S1130330052E5FE0660F771F881F991F5A95D1F726
S1130340502D20E03DE740E050E00E94750B89010C
S11303509A018091862990918729A0918829B0914A
S1130360892949815A816B817C81841B950BA60B59
S1130370B70B80179107A207B30758F32496CDBF94
S1130380DEBFDF91CF911F910F9108951F920F92BD
S11303900FB60F9211248F939F93AF93BF938091C5
S11303A0862990918729A0918829B091892901965D
S11303B0A11DB11D8093862990938729A093882934
S11303C0B0938929BF91AF919F918F910F900FBEE8
S11303D00F901F9018951F920F920FB60F92112431
S11303E00F900FBE0F901F901895E0E5F0E09081FC
S11303F0892B80830895E0E5F0E091819823E9F367
S113040098ED94BF809340000895FC01918195FF7D
S1130410FDCF60830895CF93C82F8A3019F48DE0FF
S11304200E940B026C2F80EA98E00E94050280E093
S113043090E0CF910895FC0191819923ECF780819C
S1130440FB01808308950F931F93CF93DF931F9233
S1130450CDB7DEB78C01BE016F5F7F4F80EA98E0B5
S11304600E941B02B80189810E940B02898190E0DD
S11304700F90DF91CF911F910F910895FC0181811D
S113048085FFFDCF6083818186FFFDCF80E481837A
S1130490808108951F93CF93DF93C0EAD6E018E0DC
S11304A01E83E0E6F6E091E096839683682F80EA67
S11304B099E00E943E021D83DF91CF911F91089520
S11304C0CF93DF93CDB7DEB72E97CDBFDEBF9C01B0
S11304D0FE0131968EE0DF011D928A95E9F783E0F3
S11304E08C8369877A874B875C879EE0D90101906A
S11304F00D929A95E1F72E96CDBFDEBFDF91CF9195
S11305000895EF92FF920F931F93CF93DF93C0EA66
S1130510D6E018E01E830F2EF0E6EF2EF6E0FF2E55
S1130520F02D01E0F7010583682F80EA99E00E942D
S11305303E02F70106831D83DF91CF911F910F9136
S1130540FF90EF9008958770806B0E944A0208958F
S1130550CF93C82F982F9F77892F82958F708061B2
S11305600E944A028C2F8F700E944A02CF910895F4
S1130570CF93DF93EC01FB018C818F7E8C83A0E60B
S1130580B6E082E011968C93119715968C938D8129
S1130590806C8D8384818D7F813021F48D81826094
S11305A08D8303C08D818D7F8D838581882321F088
S11305B08D8184608D8303C08D818B7F8D83808149
S11305C09181A281B3819C01AD01220F331F441F8D
S11305D0551F60E078E488EE91E00E94530B2150AF
S11305E03109832F8F708F832E838C8188608C8355
S11305F0DF91CF910895CF93DF9300D000D0CDB792
S1130600DEB740EA56E088E0DA0111968C93E0E622
S1130610F6E021E0218360E076E0DB0111968C9323
S113062092E091838183DA0115968C932583DB0113
S113063015968C9315979583858316968C93BAE6B5
S1130640BA95F1F700C0FB018583FAE6FA95F1F754
S113065000C0E0E7F0E084818F7E848380E09BE14A
S1130660A7EBB0E089839A83AB83BC831D821E828F
S1130670BE016F5F7F4F80EA99E00E94B80288EA6A
S11306800E944A028FE10E944A0283ED0E944A02BC
S113069080E00E944A0280E40E944A0281EA0E94A9
S11306A04A0288EC0E944A028AED0E944A0282E0D1
S11306B00E944A0281E80E944A028FE80E944A028C
S11306C084EA0E944A0286EA0E944A0285ED0E9458
S11306D04A0280E80E944A028DE80E944A0284E1AC
S11306E00E944A028BED0E944A0280E40E944A0260
S11306F089ED0E944A0281EF0E944A028FEA0E9419
S11307004A022696CDBFDEBFDF91CF910895EF92C6
S1130710FF920F931F93CF93DC01EC91EE2329F109
S11307207C01BFEFEB1AFB0AEF37D0F4F0E0EE0FD9
S1130730FF1FE557FE4D00811181F8018081882358
S113074061F0C1E0F801EC0FF11D80810E9481028B
S1130750CF5FD8019C919C17A8F780E00E9481028A
S1130760D701ED917D01E111DFCFCF911F910F9161
S1130770FF90EF90089520E8829FC0011124860F16
S1130780911DE0918427F0918527E80FF91F40839C
S1130790089520E8829FC0011124860F911DE091E5
S11307A08427F0918527E80FF91F808108951F930E
S11307B0CF93DF93182FD62FC42F211104C00E948A
S11307C0C9038C1771F04C2F6D2F812F0E94BB032E
S11307D0812F0E94A3028D2F0E94A8028C2F0E94B9
S11307E08102DF91CF911F910895E0EAFAE088E158
S11307F084838481848383E08583A0E8B6E088E0F1
S113080011968C93119784E012968C9381E88683D9
S113081086ED878380E3838308950F931F9310925B
S11308208A2910928B2910927E2710927F2710928A
S11308308027109281278093892290938A2221E035
S1130840209383271092822740917E2750917F27FF
S11308506091802770918127452B462B472BA1F36C
S1130860409186295091872960918829709189291E
S113087000917E2710917F27209180273091812736
S1130880401B510B620B730B46305105610571051A
S113089038F31092832721E020938227E0918A295C
S11308A0F0918B29E80FF91F10821F910F91089581
S11308B0AF92BF92CF92DF92EF92FF920F931F936A
S11308C0CF93DF93CDB7DEB72897CDBFDEBF6C01E2
S11308D08B012D833E834F83588710928A2910926F
S11308E08B2910927E2710927F27109280271092D6
S11308F081276093892270938A2281E080938327E1
S1130900109282275601E12CF12C0AC0F501619165
S11309105F0180EA9AE00E940502FFEFEF1AFF0AE6
S1130920F60101900020E9F73197EC19FD09EE1664
S1130930FF0660F36DE080EA9AE00E9405026AE037
S113094080EA9AE00E940502809186299091872985
S1130950A0918829B091892989839A83AB83BC8328
S113096080917E2790917F27A0918027B091812745
S1130970892B8A2B8B2BA1F319C080918629909106
S11309808729A0918829B091892940917E27509187
S11309907F276091802770918127841B950BA60B7C
S11309A0B70B87369105A105B10538F380918629E7
S11309B090918729A0918829B0918929C980DA80EA
S11309C0EB80FC804D815E816F8178858C199D0957
S11309D0AE09BF09481759076A077B0770F61092DA
S11309E0832781E080938227E0918A29F0918B29E3
S11309F0E00FF11F10822896CDBFDEBFDF91CF91AB
S1130A001F910F91FF90EF90DF90CF90BF90AF9028
S1130A100895CF92DF92EF92FF920F931F93CF939B
S1130A20DF938C017B0110928A2910928B291092FA
S1130A307E2710927F27109280271092812760933F
S1130A40892270938A2281E08093832710928227DF
S1130A50E801C12CD12C08C0699180EA9AE00E9477
S1130A6005028FEFC81AD80AF80101900020E9F7AF
S1130A703197E01BF10BCE16DF0670F36DE080EAD0
S1130A809AE00E9405026AE080EA9AE00E94050268
S1130A9080917E2790917F27A0918027B091812714
S1130AA0892B8A2B8B2BA1F38091862990918729FE
S1130AB0A0918829B091892940917E2750917F2760
S1130AC06091802770918127841B950BA60BB70B2F
S1130AD087369105A105B10538F31092832781E08B
S1130AE08093822780918A2990918B29E701C80FEE
S1130AF0D91F1882DF91CF911F910F91FF90EF9032
S1130B00DF90CF9008951F920F920FB60F92112489
S1130B100BB60F928F939F93AF93BF93EF93FF9373
S1130B2080918327882339F1E0918922F0918A22E8
S1130B30CF0101968093892290938A228091A00A02
S1130B4080838091862990918729A0918829B091EA
S1130B50892980937E2790937F27A0938027B09341
S1130B60812780918A2990918B29019680938A29E3
S1130B7090938B2902C08091A00AFF91EF91BF91BD
S1130B80AF919F918F910F900BBE0F900FBE0F905E
S1130B901F901895EF92FF920F931F93CF93DF93BB
S1130BA0CDB7DEB7CA57D109CDBFDEBF86E1E8EBCA
S1130BB0F2E2DE01119601900D928A95E1F77E0131
S1130BC083E3E80EF11CB701CE0101960E940905EA
S1130BD0FF92EF928EEC92E29F938F930E94F50B1B
S1130BE08E0109591F4F2AE030E047E554E2BE0167
S1130BF06B597F4FC7010E942501AB968EAD9FAD07
S1130C00AB970E94940B0F900F900F900F90C658C3
S1130C10DF4FCDBFDEBFDF91CF911F910F91FF90CA
S1130C20EF900895EF92FF921F93CF93DF93CDB788
S1130C30DEB7C456D109CDBFDEBF882309F454C042
S1130C40823071F08330B1F08130E9F498E0E2ED64
S1130C50F2E2DE01119601900D929A95E1F713C02C
S1130C6097E0EAEDF2E2DE01119601900D929A9579
S1130C70E1F709C09AE0EDE2F3E2DE01119601909A
S1130C800D929A95E1F7182FCE0101969F938F93B9
S1130C9081EE92E29F938F937E018BE0E80EF11C2C
S1130CA0FF92EF920E94390C20ED37E040E050E0D3
S1130CB0BE016D5C7F4FC7010E9458040E94CA05A3
S1130CC0212F30E00F900F900F900F900F900F9006
S1130CD08217930729F487EF92E20E94090C04C05B
S1130CE081E193E20E94090CCC59DF4FCDBFDEBFF6
S1130CF0DF91CF911F91FF90EF9008950F931F9371
S1130D00CF93DF93CDB7DEB7CA55D109CDBFDEBFD0
S1130D10411111C07F936F939F938F9387E393E265
S1130D209F938F93CE0101969F938F930E94390CCA
S1130D30CDBFDEBF15C03F932F931F9221E02F93A9
S1130D407F936F939F938F9382E593E29F938F9307
S1130D50CE0101969F938F930E94390CCDBFDEBFC5
S1130D608E01075D1F4F28EB3BE040E050E0B801E7
S1130D70CE0101960E9458041F930F938EEC92E2C9
S1130D809F938F930E94F50B0F900F900F900F90ED
S1130D90C65ADF4FCDBFDEBFDF91CF911F910F91B8
S1130DA008958F929F92AF92BF92CF92DF92EF926B
S1130DB0FF920F931F93CF93DF93CDB7DEB7C45A3F
S1130DC0D440CDBFDEBFCF55DB4F688379838A83A0
S1130DD09B83C15AD4404A01CF55DB4F8881998106
S1130DE0AA81BB81C15AD44088389341A105B10579
S1130DF060F488E893E1A0E0B0E0CF55DB4F88834E
S1130E009983AA83BB83C15AD44080E6E6E7F3E220
S1130E10DE01119601900D928A95E1F7CF55DB4FD3
S1130E20288139814A815B81C15AD440BE016B5902
S1130E307F4FCE0101960E9458048E01015B1B4F27
S1130E4024E130E046ED53E2BE01635B7B4FCE010B
S1130E508B599F4F0E942501C35BDB4F0881198189
S1130E60CD54D440023011050CF461C05E018FEA08
S1130E70A81A8BEFB80A7401E6E3EE0EF11CCC2439
S1130E80C394D12C8E0109581B4F2AE030E04AED5F
S1130E9053E2BE0161567B4FF501819191915F014F
S1130EA00E942501C958DB4F68817981C757D44016
S1130EB0C701C6970E94BF0BC758DB4F6881798171
S1130EC0C957D440C70182970E94BF0BC558DB4F56
S1130ED088819981CB57D4400E94940BF7013297B3
S1130EE080839183C358DB4F88819981CD57D44047
S1130EF00E94940BF7018083C158DB4F888199814C
S1130F00CF57D4400E94940BF70181839283FFEF63
S1130F10CF1ADF0AC35BDB4F08811981CD54D4405B
S1130F2029E3E20EF11CC016D1060CF4ABCFB401D8
S1130F306F5F7F4FC4010E94BF0BC8010197CC555E
S1130F40DB4FCDBFDEBFDF91CF911F910F91FF909B
S1130F50EF90DF90CF90BF90AF909F908F900895C7
S1130F600F931F93CF93DF93CDB7DEB7CE56D1093E
S1130F70CDBFDEBF88E1E9E0F4E2DE01D396019063
S1130F800D928A95E1F78E010F5F1F4FB801CE01D4
S1130F90C3960E9409051F930F938EEC92E29F93D0
S1130FA08F930E94F50B0F900F900F900F90C259E2
S1130FB0DF4FCDBFDEBFDF91CF911F910F91089519
S1130FC00F931F93CF93DF93CDB7DEB7C055D109ED
S1130FD0CDBFDEBF89E1E1E2F4E2DE01D396019008
S1130FE00D928A95E1F78E010F5F1F4FB801CE0174
S1130FF0C3960E9409051F930F938EEC92E29F9370
S11310008F930E94F50B0F900F900F900F90C05B81
S1131010DF4FCDBFDEBFDF91CF911F910F910895B8
S1131020EF92FF920F931F93CF93DF93CDB7DEB769
S1131030CA57D109CDBFDEBF89E1EAE3F4E2DE019C
S1131040D39601900D928A95E1F7CE0101967C0129
S1131050BC01C2960E940905FF92EF928EEC92E2C7
S11310609F938F930E94F50B8E0109591F4F2AE01D
S113107030E043E554E2BE016B597F4FC7010E9443
S113108025010F900F900F900F90C658DF4FCDBFE2
S1131090DEBFDF91CF911F910F91FF90EF900895E4
S11310A0EF92FF920F931F93CF93DF93CDB7DEB7E9
S11310B0C855D240CDBFDEBF1F930F933F932F93EC
S11310C05F934F937F936F939F938F9389E594E2FC
S11310D09F938F938E010B591F4F1F930F930E9461
S11310E0390CCE0101967C01BC01C8010E9409059E
S11310F0FF92EF928EEC92E29F938F930E94F50BF6
S1131100CDBFDEBFC85ADD4FCDBFDEBFDF91CF916B
S11311101F910F91FF90EF900895EF92FF920F931C
S11311201F93CF93DF93CDB7DEB7C855D240CDBF61
S1131130DEBF1F930F931F921F925F934F937F9372
S11311406F939F938F9380E894E29F938F938E0184
S11311500B591F4F1F930F930E94390C28E833E15A
S113116040E050E0CE0101967C01BC01C8010E9420
S11311705804FF92EF928EEC92E29F938F930E9419
S1131180F50BCDBFDEBFC85ADD4FCDBFDEBFDF914B
S1131190CF911F910F91FF90EF900895EF92FF92DE
S11311A00F931F93CF93DF93CDB7DEB7C855D240CB
S11311B0CDBFDEBFFF92EF921F920F933F932F9309
S11311C05F934F937F936F939F938F9385EC94E2F8
S11311D09F938F938E010B591F4F1F930F930E9460
S11311E0390CCE0101967C01BC01C8010E9409059D
S11311F0FF92EF928EEC92E29F938F930E94F50BF5
S1131200CDBFDEBFC85ADD4FCDBFDEBFDF91CF916A
S11312101F910F91FF90EF900895EF92FF920F931B
S11312201F93CF93DF93CDB7DEB7C855D240CDBF60
S1131230DEBF3F932F935F934F937F936F939F935F
S11312408F9385EE94E29F938F938E010B591F4FDA
S11312501F930F930E94390CCE0101967C01BC01AF
S1131260C8010E940905FF92EF928EEC92E29F93CF
S11312708F930E94F50BCDBFDEBFC85ADD4FCDBFA3
S1131280DEBFDF91CF911F910F91FF90EF900895F2
S1131290EF92FF920F931F93CF93DF93CDB7DEB7F7
S11312A0C855D240CDBFDEBF7F936F939F938F937A
S11312B08FEF94E29F938F938E010B591F4F1F93CF
S11312C00F930E94390CCE0101967C01BC01C80128
S11312D00E940905FF92EF928EEC92E29F938F9306
S11312E00E94F50BCDBFDEBFC85ADD4FCDBFDEBFB8
S11312F0DF91CF911F910F91FF90EF900895EF929E
S1131300FF921F93CF93DF93182F7B01D0E08D2F93
S11313100E94A30280E00E94A802C0E080E00E9434
S11313208102CF5FC038D1F7DF5FD43081F7812FDE
S11313300E94A30280E00E94A802C7010E948703C2
S1131340DF91CF911F91FF90EF900895CF93DF939A
S1131350CDB7DEB7C051D340CDBFDEBF00000E9481
S1131360650182E00E94F50188ED84BF109241007E
S113137081E00E94FB01E0EAF8E088E18483848153
S1131380848383E08583A0E4B6E088E011968C939F
S1131390119784E012968C9381E8868386ED878387
S11313A043E252E06BE072E08E010F5F1F4FC80111
S11313B00E946002E0E8FBE200831183028313834E
S11313C081E08093E10786E897E2809384279093F5
S11313D085270E94FB0210E0812F0E94A30280E077
S11313E00E94A80200E080E00E9481020F5F0038A2
S11313F0D1F71F5F143081F780E40E944A0210E0A5
S11314000CC021E040E0602F812F0E94D7030F5FC2
S11314100038B9F71F5F143011F000E0F2CF80E01C
S11314200E94A30284E195E20E94870388EE93E080
S11314300E947D0169E175E280E090E00E947F09ED
S11314400E94F50387E295E20E94090C87E395E286
S11314500E94090C81E00E941206AE01415F5F4FB9
S113146068EB7BE080E090E00E94D1061816190634
S113147004F58E01015F1F4F29E3289F6001299F16
S1131480D00C1124C00ED11E0F2EF3E7AF2EF5E2BF
S1131490BF2EF02D1F930F93BF92AF920E94F50BB6
S11314A0075C1F4F0F900F900F900F900C151D05A8
S11314B089F720E030E040E068E875E281E995E2F0
S11314C00E947E060E94CA059F938F9386E995E247
S11314D09F938F930E94F50B0E94E0070E94B00730
S11314E00E9410086CEA75E280E090E00E947F0997
S11314F00BEB15E224EC35E24EE150E069EC75E2C9
S113150085E395E20E94500802ED15E220E048E2EE
S113151053E26AEF75E285E395E20E948D082DE0BF
S113152036E240E050E064E376E285E395E20E942F
S11315300D0969E376E285E395E20E9448090BEB25
S113154015E224EC35E24EE150E069EC75E284E901
S113155095E20E94500802E916E220E04BE557E0CC
S11315606AEB76E284E995E20E948D082DE036E28A
S113157040E050E06CEC76E284E995E20E940D09CB
S113158069E376E284E995E20E9448090F900F909E
S11315900F900F906E0187EBC81A8DEFD80A0F2EAB
S11315A0F7E66F2EF7E27F2EF02D0F2EF1E48F2E4B
S11315B0F7E29F2EF02D5E0183E5A81A8DEFB80A9D
S11315C0C6010E940D0460ED76E2C6010E94B60BCE
S11315D0892BE1F481EE96E20E94090C0F2EF8EFBC
S11315E0EF2EF6E2FF2EF02D00E020E030E049E19E
S11315F057E26FE277E285E395E20E94CE08BF925C
S1131600AF920E94F50B0F900F902FC063E377E227
S1131610C6010E94B60B892B89F49F928F920E9477
S1131620F50B2DE036E240E050E064E376E285E33A
S113163095E20E940D090F900F9017C069E577E2BB
S1131640C6010E94B60B892B81F47F926F920E948F
S1131650F50B2DE036E240E050E06CEC76E284E9F4
S113166095E20E940D090F900F90DF92CF920E9495
S1131670F50B0F900F9000E0802F0E94A30280E0F2
S11316800E94A80210E080E00E9481021F5F1038CF
S1131690D1F70F5F043081F780E00E94A302C601F6
S11316A00E9487038DCFA1E21A2EAA1BBB1BFD014A
S11316B00DC0AA1FBB1FEE1FFF1FA217B307E4072D
S11316C0F50720F0A21BB30BE40BF50B661F771F85
S11316D0881F991F1A9469F7609570958095909565
S11316E09B01AC01BD01CF010895052E97FB1EF4AB
S11316F000940E948C0B57FD07D00E94530B07FCEB
S113170003D04EF40C948C0B509540953095219554
S11317103F4F4F4F5F4F0895909580957095619519
S11317207F4F8F4F9F4F0895FC0188279927E89496
S113173021912032E9F3293010F02E30C8F32B32F6
S113174041F02D3239F4689404C00E94ED0B820FED
S1131750911D219120532A30C0F31EF49095819558
S11317609F4F08954CE757E20C94C60BFB01DC0134
S11317708D91019080190110D9F3990B0895FB0103
S1131780DC0101900D920020E1F70895FA01A19186
S1131790B081009719F41097E1F0CD01DC01CD017F
S11317A00D90002011F4C00113C0FB0121912223EC
S11317B019F02015D9F7F3CFFB012191201519F465
S11317C01E92119606C02223C1F70D900020A1F7A6
S11317D0D001FA01A193B08308957AE0979F902DE8
S11317E0879F802D910D11240895CF93DF93CDB75A
S11317F0DEB7AE014A5F5F4FFA0161917191AF01AB
S11318008091822B9091832B0E94630CDF91CF9166
S113181008950F931F93CF93DF93E091822BF09160
S1131820832B238121FF1BC08C01D0E0C0E0F80191
S113183081918F016091822B7091832BDB0118962B
S1131840ED91FC911997882331F01995892B79F33F
S1131850DFEFCFEFECCF8AE01995892B19F08FEFEA
S11318609FEF02C08D2F9C2FDF91CF911F910F917D
S113187008950F931F93CF93DF93CDB7DEB72E97C1
S1131880CDBFDEBF0E891F8986E08C8309831A834E
S11318908FEF9FE78D839E83AE01465E5F4F688D19
S11318A0798DCE0101960E94630C2F813885F80151
S11318B0E20FF31F10822E96CDBFDEBFDF91CF91D2
S11318C01F910F9108952F923F924F925F926F92C2
S11318D07F928F929F92AF92BF92CF92DF92EF92BC
S11318E0FF920F931F93CF93DF93CDB7DEB72C975F
S11318F0CDBFDEBF7C016B018A01FC011682178219
S1131900838181FFBDC1CE0101964C01F701938112
S1131910F60193FD859193FF81916F01882309F46A
S1131920ABC1853239F493FD859193FF81916F01A9
S1131930853229F4B70190E00E946E0EE7CF512C56
S1131940312C20E02032A0F48B3269F030F4803264
S113195059F0833269F420612CC08D3239F0803320
S113196039F4216026C02260246023C0286021C08D
S113197027FD27C030ED380F3A3078F426FF06C033
S1131980FAE05F9E300D1124532E13C08AE0389E76
S1131990300D1124332E20620CC08E3221F426FD2A
S11319A06BC1206406C08C3611F4206802C08836EE
S11319B041F4F60193FD859193FF81916F018111AB
S11319C0C1CF982F9F7D9554933028F40C5F1F4FFF
S11319D0FFE3F9830DC0833631F0833771F083352B
S11319E009F05BC022C0F801808189830E5F1F4F1C
S11319F044244394512C540115C03801F2E06F0E75
S1131A00711CF801A080B18026FF03C0652D70E031
S1131A1002C06FEF7FEFC5012C870E94630E2C017B
S1131A2083012C852F77222E17C03801F2E06F0E28
S1131A30711CF801A080B18026FF03C0652D70E001
S1131A4002C06FEF7FEFC5012C870E94580E2C0156
S1131A502C852068222E830123FC1BC0832D90E05B
S1131A6048165906B0F4B70180E290E00E946E0E69
S1131A703A94F4CFF50127FC859127FE81915F010B
S1131A80B70190E00E946E0E31103A94F1E04F1AC3
S1131A9051084114510471F7E5C0843611F08936B8
S1131AA039F5F80127FF07C0608171818281938134
S1131AB00C5F1F4F08C060817181072E000C880BDA
S1131AC0990B0E5F1F4F2F76722E97FF09C09095CA
S1131AD08095709561957F4F8F4F9F4F2068722E30
S1131AE02AE030E0A4010E94A60EA82EA81844C043
S1131AF0853729F42F7EB22E2AE030E025C0F22F5C
S1131B00F97FBF2E8F36C1F018F4883579F0B4C050
S1131B10803719F0883721F0AFC02F2F2061B22E03
S1131B20B4FE0DC08B2D8460B82E09C024FF0AC0FA
S1131B309F2F9660B92E06C028E030E005C020E152
S1131B4030E002C020E132E0F801B7FE07C0608156
S1131B507181828193810C5F1F4F06C06081718106
S1131B6080E090E00E5F1F4FA4010E94A60EA82EF5
S1131B70A818FB2DFF777F2E76FE0BC0372D3E7FF6
S1131B80A51450F474FE0AC072FC08C0372D3E7EC2
S1131B9005C0BA2C372D03C0BA2C01C0B52C34FFB4
S1131BA00DC0FE01EA0DF11D8081803311F4397EF0
S1131BB009C032FF06C0B394B39404C0832F86785F
S1131BC009F0B39433FD13C030FF06C05A2CB3148C
S1131BD018F4530C5B18B32CB31468F4B70180E207
S1131BE090E03C870E946E0EB3943C85F5CFB3140D
S1131BF010F43B1801C0312C34FF12C0B70180E34C
S1131C0090E03C870E946E0E3C8532FF17C031FD88
S1131C1003C088E790E002C088E590E0B7010CC0FB
S1131C20832F867859F031FF02C08BE201C080E235
S1131C3037FD8DE2B70190E00E946E0EA51438F4D2
S1131C40B70180E390E00E946E0E5A94F7CFAA94F5
S1131C50F401EA0DF11D8081B70190E00E946E0E3F
S1131C60A110F5CF332009F451CEB70180E290E002
S1131C700E946E0E3A94F6CFF7018681978102C0D6
S1131C808FEF9FEF2C96CDBFDEBFDF91CF911F91D9
S1131C900F91FF90EF90DF90CF90BF90AF909F9007
S1131CA08F907F906F905F904F903F902F9008950A
S1131CB0FC010590615070400110D8F78095909513
S1131CC08E0F9F1F0895FC01615070400190011018
S1131CD0D8F7809590958E0F9F1F08950F931F93AB
S1131CE0CF93DF93FB01238121FD03C08FEF9FEF8F
S1131CF028C022FF16C046815781248135814217AE
S1131D00530744F4A081B1819D012F5F3F4F20838D
S1131D1031838C93268137812F5F3F4F268337830E
S1131D2010C0EB01092F182F0084F185E02D1995BF
S1131D30892BE1F68E819F8101968E839F83812F6B
S1131D40902FDF91CF911F910F910895FA01AA2747
S1131D50283051F1203181F1E8946F936E7F6E5FEA
S1131D607F4F8F4F9F4FAF4FB1E03ED0B4E03CD098
S1131D70670F781F891F9A1FA11D680F791F8A1F7B
S1131D80911DA11D6A0F711D811D911DA11D20D0E2
S1131D9009F468943F912AE0269F11243019305D9C
S1131DA03193DEF6CF010895462F4770405D41938D
S1131DB0B3E00FD0C9F7F6CF462F4F70405D4A33DA
S1131DC018F0495D31FD4052419302D0A9F7EACFA2
S1131DD0B4E0A6959795879577956795BA95C9F7D1
S1131DE000976105710508959B01AC010A2E0694C4
S1131DF05795479537952795BA95C9F7620F731F7D
S10F1E00841F951FA01D0895F894FFCFC7
S1131E0C05100810201003826C1001FE03106C8264
S1131E1C03C8A8980418A0A07805885020508805F9
S1131E2C38C030C03805186080601804788080F899
S1131E3C03087C880490A8A84803F8100804102808
S1131E4C28F804F8282810047088887004F81008FE
S1131E5CF005F808F008F001FE04FE20508802801A
S1131E6C7A01FA04FE1008F00410A8A87803FC12F6
S1131E7C020470A8A83004708888FE0470888888CE
S1131E8C04FE88887004708888F802020403808039
S1131E9C8003040204038282FE030638C003FE821C
S1131EAC8205C2A2928A86050608F0080605C62891
S1131EBC1028C6053EC038C03E050E30C0300E0496
S1131ECC7E80807E050202FE0202044C929264041F
S1131EDCFE1232CC057C82A242BC04FE12120C040B
S1131EEC7C82827C05FE041860FE05FE040804FE58
S1131EFC04FE80808005FE10284482044080807E8D
S1131F0C0382FE8204FE1010FE057C829292F4047D
S1131F1CFE12120204FE92928204FE82827C047CE3
S1131F2C82824404FE92926C05F8141214F8083858
S1131F3C4492AAAABA2418050402A2120C048244DC
S1131F4C28100428282828041028448201C4014499
S1131F5C054C9292927C056C9292926C050202F260
S1131F6C0A06057C92929264055E8A8A8A7205300E
S1131F7C2824FE2005448292926C0584C2A2928C81
S1131F8C050084FE8000057CA2928A7C03C038067E
S1131F9C01800310101001C00310381003281028FE
S1131FAC03824438033844820106056C92AC40A089
S1131FBC05462610C8C4054854FE54240528FE289A
S1131FCCFE280306000601BE020000C821C621C279
S1131FDC21BC21B621B021AA21A821A421A0219C95
S1131FEC2198219621922190218C21862180217A7D
S1131FFC2174216E21682162215C21562150214ECD
S113200C214C21472142213D2137212E21282123F6
S113201C211E21192114210F21092104210021FB46
S113202C20F520F020EA20E420DF20DA20D420CF91
S113203C20CA20C420BF20B920B320AD20A720A1E2
S113204C209D209920952091208D208A2085208008
S113205C207B20762071206D206820632061205E17
S113206C205920572051204C20472042203D203914
S113207C20342030202B2025201F20192014201040
S113208C200C200A20062000208C294E4F4E45009F
S113209C4556454E00756172742E736574757028BF
S11320AC25642C2025642C2025642C2025732C20BD
S11320BC25732C20256429007072696E7428776945
S11320CC66692E6765746D6F6465282929000A2575
S11320DC730053544154494F4E00534F465441508E
S11320EC00776966692E7365746D6F64652877690A
S11320FC66692E2573290077616C6C6120796F7584
S113210C2061726520646F696E6720677265617403
S113211C00736F6D657468696E67206973207265EE
S113212C616C6C79207363726577656400535441F8
S113213C54494F4E415000776966692E7374612E71
S113214C636F6E66696728222573222C22257322FD
S113215C2900776966692E7374612E636F6E6669E4
S113216C6728222573222C222573222C25642C22E9
S113217C25732220290066756E6374696F6E206C5A
S113218C697374617028742920666F72206B2C76C5
S113219C20696E20706169727328742920646F2021
S11321AC207072696E74286B2E2E22202320222E0E
S11321BC2E762920656E6420656E642077696669C5
S11321CC2E7374612E676574617028312C206C69D0
S11321DC7374617029003E0D0A002328292C2200F7
S11321EC776966692E7374612E636F6E6E656374A2
S11321FC282900776966692E7374612E6469736388
S113220C6F6E6E6563742829007072696E7428771A
S113221C6966692E7374612E67657469702829293F
S113222C007072696E7428776966692E7374612EF6
S113223C6765746D6163282929007072696E74284E
S113224C776966692E7374612E737461747573285F
S113225C292900203E090D0A002573203D206D71AB
S113226C74742E436C69656E7428222573222C2099
S113227C25642C20222573222C202225732229004C
S113228C25733A636F6E6E65637428222573222C52
S113229C20222564222C202564202C312C2025730B
S11322AC290025733A636C6F736528290025733AEA
S11322BC6C777428222573222C222573222C2564F6
S11322CC2C2564290025733A7075626C697368282F
S11322DC222573222C222573222C25642C25642C74
S11322EC202573290025733A7375627363726962CE
S11322FC6528222573222C25642C2025732900257E
S113230C733A6F6E28226D657373616765222C2096
S113231C25732900454D4F4E00454D4F4E20594FC6
S113232C5520524F434B007374617274696E67206D
S113233C73797374656D002D2D2D2D2D2D2D2D2D53
S113234C2D2D2D2D2D2D2D2D2D2D2D2D2D2D2D2DAD
S113235C2D2D2D2D2D2D2D2D2D2D2D2D2D2D2D2D9D
S113236C2D2D2D2D2D2D2D2D2D2D2D2D2D2D2D2D8D
S113237C2D2D00617661696C61626C6520737369E3
S113238C64203A2025730A0031393033313939321B
S113239C00456D6F6E000A74686520776966692064
S11323AC6D6F64652069732025640A0048414249B5
S11323BC425552205241484D414E0070617373771F
S11323CC6F7264007573657200636C69656E746911
S11323DC640066756E6374696F6E28636F6E6E2924
S11323EC207072696E7428226D3A636F6E6E656329
S11323FC746564222920656E6400656D6F6E2E64AD
S113240C6C696E6B64646E732E636F6D0066756EAF
S113241C6374696F6E28636F6E6E29207072696EB7
S113242C742822737562736372696265642229204D
S113243C656E6400736B79320066756E6374696FD4
S113244C6E28636F6E6E2C20746F7069632C20641D
S113245C61746129207072696E7428746F70696379
S113246C202E2E20223A22202920696620646174B1
S113247C61207E3D206E696C207468656E207072DC
S113248C696E7428646174612920656E6420656EBC
S113249C640066756E6374696F6E28636F6E6E2963
S11324AC207072696E7428226E3A636F6E6E656367
S11324BC746564222920656E640062726F6B6572A8
S11324CC2E686976656D712E636F6D00646F67009D
S11324DC736B79323A0D0A6B616D696E65790D0A0D
S11324EC000A0A2A2A2A2A2A2A6675636B20796F1B
S11324FC752A2A2A2A2A0A0066756E6374696F6E15
S113250C28636F6E6E29207072696E74282273654D
S113251C6E74222920656E64007465737420726570
S113252C706C79202E2E20627920656D6F6E00738D
S113253C6B79006D3A636F6E6E65637465640D0A36
S113254C005245434F4E4E454354494E47204E4F3F
S113255C5757575757212121006E3A636F6E6E659A
S113256C637465640D0A005245434F4E4E45435403
S10F257C494E47204E4F572121210000FA
S9030000FC
