S014000063335F6669656C64666172652E7372656379
S11300000C940C010C942D010C942D010C942D01D5
S11300100C942D010C942D010C942D010C942D01A4
S11300200C942D010C942D010C94D0010C94F50129
S11300300C942D010C942D010C942D010C942D0184
S11300400C942D010C942D010C942D010C942D0174
S11300500C942D010C942D010C942D010C942D0164
S11300600C942D010C942D010C942D010C942D0154
S11300700C942D010C942D010C942D010C942D0144
S11300800C942D010C942D010C942D010C942D0134
S11300900C942D010C942D010C942D010C942D0124
S11300A00C942D010C942D010C942D010C942D0114
S11300B00C942D010C942D010C942D010C942D0104
S11300C00C942D010C942D010C942D010C942D01F4
S11300D00C942D010C942D010C942D010C942D01E4
S11300E00C942D010C942D010C945B0A0C942D019D
S11300F00C942D010C942D010C942D010C942D01C4
S11301000C942D010C942D010C942D010C942D01B3
S11301100C942D010C942D010C942D010C942D01A3
S11301200C942D010C942D010C942D010C942D0193
S11301300C942D010C942D010C942D010C942D0183
S11301400C942D010C942D010C942D010C942D0173
S11301500C942D010C942D010C942D010C942D0163
S11301600C942D010C942D010C942D010C942D0153
S11301700C942D010C942D010C942D010C942D0143
S11301800C942D010C942D010C942D010C942D0133
S11301900C942D010C942D010C942D010C942D0123
S11301A00C942D010C942D010C942D010C942D0113
S11301B00C942D010C942D010C942D010C942D0103
S11301C00C942D010C942D010C942D010C942D01F3
S11301D00C942D010C942D010C942D010C942D01E3
S11301E00C942D010C942D010C942D010C942D01D3
S11301F00C942D010C942D010C942D010C94580297
S11302000C9425020C943D020C9415026364696EEF
S11302106F70737578585B0011241FBECFEFCDBF8C
S1130220DFE9DEBF00E00CBF19E2A0E0B0E2E6E1E6
S1130230F6E200E00BBF02C007900D92AC30B107AC
S1130240D9F72CE2ACE0B9E201C01D92A03CB207A0
S1130250E1F70E94B90A0C9409130C940000AF92C0
S1130260BF92CF92DF92EF92FF920F931F93CF939F
S1130270DF935B017A016901BA010E94290C00979E
S1130280D9F0F801808391831C141D04C4F40E5F1B
S11302901F4FC1E0D0E008C02196F80181939193EB
S11302A08F01CC16DD066CF0B70180E090E00E946F
S11302B0290C009789F705C0C0E0D0E002C0C1E076
S11302C0D0E0F501C083D183DF91CF911F910F91CD
S11302D0FF90EF90DF90CF90BF90AF900895E2EA47
S11302E0F0E08081876080838BE080934300E2E0CC
S11302F0F4E080818160808380E290E080930A044E
S113030090930B0481E080930004789408950F93F4
S11303101F93CF93DF9300D01F92CDB7DEB7BC01FC
S11303208091182B9091192BA0911A2BB0911B2B13
S113033089839A83AB83BC83CB01770FAA0BBB0B56
S1130340BC01CD01052E5FE0660F771F881F991F42
S11303505A95D1F7502D20E03DE740E050E00E944F
S1130360EC0B89019A018091182B9091192BA09183
S11303701A2BB0911B2B49815A816B817C81841B80
S1130380950BA60BB70B80179107A207B30758F379
S11303902496CDBFDEBFDF91CF911F910F910895B9
S11303A01F920F920FB60F9211248F939F93AF93C6
S11303B0BF938091182B9091192BA0911A2BB09177
S11303C01B2B0196A11DB11D8093182B9093192B03
S11303D0A0931A2BB0931B2BBF91AF919F918F9138
S11303E00F900FBE0F901F9018951F920F920FB68B
S11303F00F9211240F900FBE0F901F901895E0E5F7
S1130400F0E09081892B80830895E0E5F0E091810C
S11304109823E9F398ED94BF809340000895FC017C
S1130420918195FFFDCF60830895CF93C82F8A30C3
S113043019F48DE00E9415026C2F80EA98E00E9466
S11304400F0280E090E0CF910895CF93C82F8A30B7
S113045019F48DE00E9425026C2F80EA9AE00E9434
S11304600F0280E090E0CF910895FC0191819923DF
S1130470ECF78081FB01808308950F931F93CF9342
S1130480DF931F92CDB7DEB78C01BE016F5F7F4F44
S113049080EA98E00E943502B80189810E94150221
S11304A0898190E00F90DF91CF911F910F91089572
S11304B00F931F93CF93DF931F92CDB7DEB78C01B9
S11304C0BE016F5F7F4F80EA9AE00E943502B80157
S11304D089810E942502898190E00F90DF91CF915C
S11304E01F910F910895FC01818185FFFDCF6083E9
S11304F0818186FFFDCF80E48183808108951F93ED
S1130500CF93DF93C0EAD6E018E01E83E0E6F6E07E
S113051091E096839683682F80EA99E00E947302A3
S11305201D83DF91CF911F910895CF93DF93CDB7B2
S1130530DEB72E97CDBFDEBF9C01FE0131968EE063
S1130540DF011D928A95E9F783E08C8369877A87B6
S11305504B875C879EE0D90101900D929A95E1F753
S11305602E96CDBFDEBFDF91CF910895EF92FF921B
S11305700F931F93CF93DF93C0EAD6E018E01E8356
S11305800F2EF0E6EF2EF6E0FF2EF02D01E0F7013E
S11305900583682F80EA99E00E947302F7010683BD
S11305A01D83DF91CF911F910F91FF90EF900895DC
S11305B08770806B0E947F020895CF93C82F982F75
S11305C09F77892F82958F7080610E947F028C2F84
S11305D08F700E947F02CF910895CF93DF93EC0137
S11305E0FB018C818F7E8C83A0E6B6E082E01196BD
S11305F08C93119715968C938D81806C8D83848157
S11306008D7F813021F48D8182608D8303C08D8143
S11306108D7F8D838581882321F08D8184608D83F6
S113062003C08D818B7F8D8380819181A281B38171
S11306309C01AD01220F331F441F551F60E078E475
S113064088EE91E00E94CA0B21503109832F8F70EC
S11306508F832E838C8188608C83DF91CF91089562
S1130660CF93DF9300D000D0CDB7DEB740EA56E099
S113067088E0DA0111968C93E0E6F6E021E021832C
S113068060E076E0DB0111968C9392E091838183A4
S1130690DA0115968C932583DB0115968C931597B7
S11306A09583858316968C93BAE6BA95F1F700C0C4
S11306B0FB018583FAE6FA95F1F700C0E0E7F0E084
S11306C084818F7E848380E09BE1A7EBB0E0898303
S11306D09A83AB83BC831D821E82BE016F5F7F4FF2
S11306E080EA99E00E94ED0288EA0E947F028FE18D
S11306F00E947F0283ED0E947F0280E00E947F02BD
S113070080E40E947F0281EA0E947F0288EC0E94BA
S11307107F028AED0E947F0282E00E947F0281E8CC
S11307200E947F028FE80E947F0284EA0E947F0277
S113073086EA0E947F0285ED0E947F0280E80E9483
S11307407F028DE80E947F0284E10E947F028BED8C
S11307500E947F0280E40E947F0289ED0E947F0252
S113076081EF0E947F028FEA0E947F022696CDBF0E
S1130770DEBFDF91CF910895EF92FF920F931F9305
S1130780CF93DC01EC91EE2329F17C01BFEFEB1A4E
S1130790FB0AEF37D0F4F0E0EE0FFF1FE557FE4DF4
S11307A000811181F8018081882361F0C1E0F801A2
S11307B0EC0FF11D80810E94B602CF5FD8019C919D
S11307C09C17A8F780E00E94B602D701ED917D0145
S11307D0E111DFCFCF911F910F91FF90EF9008951A
S11307E020E8829FC0011124860F911DE0911629F3
S11307F0F0911729E80FF91F4083089520E8829F9C
S1130800C0011124860F911DE0911629F09117293A
S1130810E80FF91F808108951F93CF93DF93182F5A
S1130820D62FC42F211104C00E94FE038C1771F02F
S11308304C2F6D2F812F0E94F003812F0E94D8022C
S11308408D2F0E94DD028C2F0E94B602DF91CF9182
S11308501F910895E0EAFAE088E184838481848327
S113086083E08583A0E8B6E088E011968C93119725
S113087084E012968C9389E8868380ED878380E3F5
S1130880838348E552E065E272E08CEA9CE20E94D0
S1130890950208950F931F93BC018091182B90919A
S11308A0192BA0911A2BB0911B2B80931229909392
S11308B01329A0931429B09315298091182B909192
S11308C0192BA0911A2BB0911B2B80930E29909376
S11308D00F29A0931029B0931129CB01770FAA0BEC
S11308E0BB0BBC01CD01052E5FE0660F771F881F8F
S11308F0991F5A95D1F7502D20E03DE740E050E094
S11309000E94EC0B89019A0118C08091182B9091D8
S1130910192BA0911A2BB0911B2B409112295091A5
S113092013296091142970911529841B950BA60B2A
S1130930B70BC397A105B10540F38091182B909193
S1130940192BA0911A2BB0911B2B40910E29509179
S11309500F296091102970911129841B950BA60B06
S1130960B70B80179107A207B30778F2E0918922A9
S1130970F0918A2210828CE19BE2809389229093E9
S11309808A221F910F9108952F923F924F925F9266
S11309906F927F928F929F92AF92BF92CF92DF928B
S11309A0EF92FF920F931F93CF93DF93CDB7DEB7F0
S11309B0C258D109CDBFDEBF8DB69EB68091182B2B
S11309C09091192BA0911A2BB0911B2B8093122973
S11309D090931329A0931429B09315298091182B6F
S11309E09091192BA0911A2BB0911B2B80930E2957
S11309F090930F29A0931029B09311298091182B5B
S1130A009091192BA0911A2BB0911B2B4091122974
S1130A10509113296091142970911529841B950B09
S1130A20A60BB70BC397A105B10540F3E09189224A
S1130A30F0918A2210828CE19BE29F938F9380E94C
S1130A4092E29F938F930E94F60C0F900F900F9059
S1130A500F908091892290918A228C519B4209F0B7
S1130A6008F4CAC0CE014F969F938F930A979F9321
S1130A708F930A979F938F938E010F5F1F4F1F933E
S1130A800F9383E992E29F938F938CE19BE29F9370
S1130A908F930E943A0D1F930F9380E992E29F93E4
S1130AA08F930E94F60C6BE872E2C8010E942D0C31
S1130AB0EDB7FEB77096EDBFFEBF892B09F09CC061
S1130AC02DB63EB6D801F80101900020E9F7319720
S1130AD09F01201B310B1A96FD0101900020E9F7BC
S1130AE03197EA1BFB0BCE014596DC010D900020EB
S1130AF0E9F71197A81BB90B2E0F3F1F2A5F3F4F31
S1130B005901AA0EBB1E0E940B0C3C012DB73EB727
S1130B10281B390B2DBF3EBF8DB79EB701962C0104
S1130B20BF92AF9284EB92E29F938F930E94F60C54
S1130B300F900F900F900F901614170424F5850151
S1130B40045E144D6201C501860D971DFC01E45E2F
S1130B50F44D5F010F2EFEECEF2EF2E2FF2EF02D8E
S1130B60F80181918F01F60181936F011F928F9398
S1130B70FF92EF920E94F60C0F900F900F900F903F
S1130B800A151B0569F7F201E60DF71D1082CE0167
S1130B904F969F938F930A979F938F930A979F9350
S1130BA08F930A979F938F9383ED92E29F938F93F2
S1130BB00E94F60C2DB73EB7265F3F4F2DBF3EBFB8
S1130BC000E0802F0E94D80280E00E94DD0210E045
S1130BD080E00E94B6021F5F1038D1F70F5F043027
S1130BE081F780E00E94D80280E00E94DD02C20109
S1130BF00E94BC032DBE3EBE8CE19BE28093892201
S1130C0090938A228DBE9EBECE57DF4FCDBFDEBFEE
S1130C10DF91CF911F910F91FF90EF90DF90CF90D4
S1130C20BF90AF909F908F907F906F905F904F9008
S1130C303F902F9008950F931F93CF93DF93CDB7D9
S1130C40DEB76697CDBFDEBF182F8EEB93E20E940E
S1130C500A0D1F921F9389ED93E29F938F938CEA61
S1130C609CE29F938F930E946C0C80ED97E00E940E
S1130C704A048E010D5F1F4F2AE030E048EE53E234
S1130C80BE016F5F7F4F8CE19BE20E942F016F8159
S1130C9078858CEF92E20E942D0C0F900F900F90AC
S1130CA00F900F900F90892B39F480EF93E20E94FC
S1130CB00A0D81E090E006C085E094E20E940A0DEE
S1130CC08FEF9FEF6696CDBFDEBFDF91CF911F916F
S1130CD00F9108950F931F93CF93DF93CDB7DEB792
S1130CE06697CDBFDEBF8CE094E20E940A0D2CEA29
S1130CF03CE24CE050E061E070E088E294E20E9463
S1130D00B40C80ED97E00E944A048E010D5F1F4FE2
S1130D102AE030E045E354E2BE016F5F7F4F8CE18F
S1130D209BE20E942F0169857A858CEF92E20E94F2
S1130D302D0C892B99F488858F938F818F9389E368
S1130D4094E29F938F930E94F60C8F8198850E9462
S1130D500B0C0F900F900F900F9005C08FE793E24C
S1130D600E940A0D8FEF6696CDBFDEBFDF91CF9153
S1130D701F910F9108956F927F928F929F92AF92DD
S1130D80BF92CF92DF92EF92FF920F931F93CF9374
S1130D90DF93CDB7DEB7AC97CDBFDEBF682E792E1B
S1130DA089E494E20E940A0D2CEA3CE24AE050E015
S1130DB061E070E08EE594E20E94B40C80E49FE16F
S1130DC00E944A048E010D5F1F4F2AE030E049E67D
S1130DD054E2BE016F5F7F4F8CE19BE20E942F01C2
S1130DE089809A80181419040CF059C06801E12C08
S1130DF0F12CA12CB12C6CEF72E2F601819191914E
S1130E006F010E942D0C892B09F45701FFEFEF1A93
S1130E10FF0AE814F90479F783E0A816B1040CF486
S1130E2043C06E0197E0C90ED11CE62CF72C450196
S1130E30880C991CE3E0F0E0EC0FFD1F8E0E9F1E62
S1130E408E01095E1F4F2AE030E04EE654E2BE01F7
S1130E50655D7F4FF601819191916F010E942F0191
S1130E60898D9A8D0E940B0CF70181936B8D7C8D7B
S1130E70CF010E94360C8D8D9E8D0E940B0CF701C4
S1130E8081A392A36F8D78A1C70183960E94360C2B
S1130E90F7E3EF0EF11CC814D90491F609C0689465
S1130EA0AA24A1F8B12C04C06894AA24A1F8B12CF6
S1130EB0C5010297AC96CDBFDEBFDF91CF911F91E4
S1130EC00F91FF90EF90DF90CF90BF90AF909F90E5
S1130ED08F907F906F900895EF92FF920F931F93DE
S1130EE0CF93DF93CDB7DEB76697CDBFDEBF182FA4
S1130EF0092FF62EE72E83E794E20E940A0DEF9263
S1130F00FF920F931F9388E894E29F938F938CEA48
S1130F109CE29F938F930E946C0C80E197E20E9465
S1130F204A048E010D5F1F4F2AE030E04DE954E280
S1130F30BE016F5F7F4F8CE19BE20E942F016985A8
S1130F407A858CEF92E20E942D0CCDBFDEBF892BF7
S1130F5089F48E818F938D818F9384EA94E29F9399
S1130F608F930E94F60C0F900F900F900F9081E0DA
S1130F7090E006C082EC94E20E940A0D8FEF9FEF8E
S1130F806696CDBFDEBFDF91CF911F910F91FF9089
S1130F90EF900895EF92FF920F931F93CF93DF93F7
S1130FA0CDB7DEB76697CDBFDEBF7C0184ED94E29A
S1130FB00E940A0D2CEA3CE24BE050E061E070E054
S1130FC08AEE94E20E94B40C80ED97E00E944A04F9
S1130FD08E010D5F1F4F2AE030E04CEE53E2BE015C
S1130FE06F5F7F4F8CE19BE20E942F0169857A85B8
S1130FF08CEF92E20E942D0C892B41F46F8178854D
S1131000C7010E94360C81E090E006C08FE793E2AE
S11310100E940A0D8FEF9FEF6696CDBFDEBFDF9172
S1131020CF911F910F91FF90EF900895EF92FF924F
S11310300F931F93CF93DF93CDB7DEB76697CDBFE2
S1131040DEBF7C0186E295E20E940A0D2CEA3CE2B6
S11310504AE050E061E070E089E395E20E94B40C5C
S113106080ED97E00E944A048E010D5F1F4F2AE035
S113107030E048EE53E2BE016F5F7F4F8CE19BE2AC
S11310800E942F016F817885C7010E94360C6696F5
S1131090CDBFDEBFDF91CF911F910F91FF90EF90F5
S11310A00895EF92FF920F931F93CF93DF93CDB7E1
S11310B0DEB76697CDBFDEBF7C0184E495E20E9473
S11310C00A0D2CEA3CE24AE050E061E070E089E37A
S11310D095E20E94B40C80ED97E00E944A048E01D0
S11310E00D5F1F4F2AE030E048EE53E2BE016F5F10
S11310F07F4F8CE19BE20E942F016B857C85C701A9
S11311000E94360C6696CDBFDEBFDF91CF911F9152
S11311100F91FF90EF9008950F931F93CF93DF9358
S1131120CDB7DEB76697CDBFDEBF182F1F928F9362
S113113088E595E29F938F930E94F60C1F921F936C
S11311408BE695E29F938F938CEA9CE29F938F9317
S11311500E946C0C80ED97E00E944A048E010D5FA2
S11311601F4F2AE030E048EE53E2BE016F5F7F4F2D
S11311708CE19BE20E942F016F8178858CEF92E2D3
S11311800E942D0CCDBFDEBF892B39F48AE795E28E
S11311900E940A0D81E090E006C083EA95E20E9475
S11311A00A0D8FEF9FEF6696CDBFDEBFDF91CF9123
S11311B01F910F9108956F927F928F929F92AF9299
S11311C0BF92CF92DF92EF92FF920F931F93CF9330
S11311D0DF93CDB7DEB7C254D109CDBFDEBF85E200
S11311E096E20E940A0D2CEA3CE24EE050E061E0F7
S11311F070E080E496E20E94B40C84EF91E00E94D7
S11312004A048E010B5F1F4F2AE030E044EF52E2A4
S1131210BE016F5F7F4F8CE19BE20E942F01E9804A
S1131220FA801E141F040CF073C0A12CB12C6CEFB7
S113123072E2F801819191918F010E942D0C892B0A
S1131240C1F48E01075E1F4F2AE030E04FE456E2FE
S1131250BE016D5F7F4F8F8198850E942F018B8D1A
S11312609C8D0E940B0C3C01F3E0AF16B10444F4D6
S113127062C08FEFA81AB80AAE14BF04C1F648C002
S11312804E0199E0890E911CAA0CBB1CE5E0F0E02C
S1131290EC0FFD1FAE0EBF1E0F2EF5E5CF2EF6E2AE
S11312A0DF2EF02D8E01035D1F4F2AE030E041E573
S11312B056E2BE016F5B7F4FF401819191914F0122
S11312C00E942F0123968EAD9FAD23971816190601
S11312D0DCF4E12CF12CF801808191810E5F1F4F29
S11312E09F938F93DF92CF920E94F60CFFEFEF1A39
S11312F0FF0A0F900F900F900F9023968EAD9FAD25
S11313002397E816F9063CF38A149B0459F613C094
S11313108E01075E1F4F2AE030E04FE456E2BE0123
S11313206D5F7F4F8F8198850E942F018B8D9C8DDF
S11313300E940B0C3C01C301CE5BDF4FCDBFDEBF6F
S1131340DF91CF911F910F91FF90EF90DF90CF909D
S1131350BF90AF909F908F907F906F9008950F9360
S11313601F93CF93DF93CDB7DEB76697CDBFDEBFB4
S1131370182F092F89E796E20E940A0D0F931F93F5
S113138088E896E29F938F938CEA9CE29F938F93D5
S11313900E946C0C80ED97E00E944A048E010D5F60
S11313A01F4F2AE030E043EE55E2BE016F5F7F4FEE
S11313B08CE19BE20E942F0109851A856CEF72E291
S11313C0C8010E942D0C0F900F900F900F900F905A
S11313D00F90892B29F48CE996E20E940A0D13C020
S11313E068EB76E2C8010E942D0C892B61F46BEB4B
S11313F076E28B859C850E942D0C892B21F482EC4E
S113140096E20E940A0D6696CDBFDEBFDF91CF91B2
S11314101F910F9108950F931F93CF93DF93CDB72F
S1131420DEB76697CDBFDEBF89EB97E20E940A0D57
S11314302CEA3CE24CE050E061E070E081ED97E2A0
S11314400E94B40C80ED97E00E944A048E010D5F67
S11314501F4F2AE030E043EE55E2BE016F5F7F4F3D
S11314608CE19BE20E942F016CEF72E289859A85E0
S11314700E942D0C892BA9F48F8198850E940B0C56
S11314809F938F938EED97E29F938F930E94F60C18
S11314908F8198850E940B0C0F900F900F900F90E6
S11314A002C08FEF9FEF6696CDBFDEBFDF91CF9175
S11314B01F910F9108951F920F920FB60F9211244E
S11314C00BB60F928F939F93AF93BF93EF93FF93BA
S11314D0E0918922F0918A22CF010196809389229A
S11314E090938A228091A00A80838091182B9091F6
S11314F0192BA0911A2BB0911B2B80931229909336
S11315001329A0931429B0931529FF91EF91BF914A
S1131510AF919F918F910F900BBE0F900FBE0F90C4
S11315201F901895EF92FF921F93CF93DF93182F7C
S11315307B01D0E08D2F0E94D80280E00E94DD0262
S1131540C0E080E00E94B602CF5FC038D1F7DF5F11
S1131550D43081F7812F0E94D80280E00E94DD02FE
S1131560C7010E94BC03DF91CF911F91FF90EF90C0
S11315700895CF93DF93CDB7DEB7C658D240CDBF21
S1131580DEBF0E946F0182E00E94FF0188ED84BFEC
S11315901092410081E00E940502E0EAF8E088E14F
S11315A084838481848383E08583A0E4B6E088E037
S11315B011968C93119784E012968C9389E8868314
S11315C080ED87834DE352E065E172E08E010F5FA9
S11315D01F4FC8010E949502EAEBFCE200831183CD
S11315E00283138381E08093E10788E199E2809389
S11315F01629909317290E94300380E40E947F02E9
S113160000E00CC021E040E0612F802F0E940C0418
S11316101F5F1038B9F70F5F043011F010E0F2CFFC
S113162080E00E94D80284E798E20E94BC0388EE1E
S113163093E00E94870169E778E280E090E00E94ED
S1131640920A0E942A0481E00E941B060E946A06F4
S113165081E00E948C08CE010F960E94BB066C01AB
S1131660181619060CF051C08E01015F1F4F87E355
S11316708C9D70018D9DF00C1124E00EF11E0F2E37
S1131680FBE8AF2EF8E2BF2EF02DC80183969F939E
S11316908F93F80182A18F9381A18F93C801019642
S11316A09F938F9380811F928F93BF92AF920E94DA
S11316B0F60C095C1F4FCDBFDEBF0E151F0529F7C1
S11316C08E01005F1F4FE12CF12CA12CB12C6EEA8E
S11316D078E2C8010E942D0C892B61F481EA98E21A
S11316E00E940A0D63EB78E2C8010E946C07AA24E9
S11316F0A394B12C9FEFE91AF90A095C1F4FEC146B
S1131700FD0429F7AA94AB2821F08CEB98E20E94FF
S11317100A0D8E010B5C1D4FC8010E94CA071F935E
S11317200F9380ED98E29F938F930E94F60C005ED6
S11317301F4FC8010E9416087E01F7E9EF1AFDEF5A
S1131740FF0AC7010E945108FF92EF921F930F9363
S11317508AEE98E29F938F930E94F60CB80181E081
S113176090E00E94920A80E49FE10E94AF090E94E7
S11317700B0A86E099E20E940A0DCDBFDEBF80E02D
S113178090E00E94DB0888EE93E00E9487010E94AB
S1131790C404F5CFA1E21A2EAA1BBB1BFD010DC088
S11317A0AA1FBB1FEE1FFF1FA217B307E407F5070D
S11317B020F0A21BB30BE40BF50B661F771F881FE9
S11317C0991F1A9469F760957095809590959B017F
S11317D0AC01BD01CF010895052E97FB1EF40094C2
S11317E00E94030C57FD07D00E94CA0B07FC03D0CC
S11317F04EF40C94030C50954095309521953F4F31
S11318004F4F5F4F089590958095709561957F4FE8
S11318108F4F9F4F0895FC0188279927E8942191C1
S11318202032E9F3293010F02E30C8F32B3241F086
S11318302D3239F4689404C00E94640C820F911D07
S1131840219120532A30C0F31EF4909581959F4F27
S113185008954CE059E20C943D0CFB01DC018D91A0
S1131860019080190110D9F3990B0895FB01DC0153
S113187001900D920020E1F70895FA01A191B08141
S1131880009719F41097E1F0CD01DC01CD010D9022
S1131890002011F4C00113C0FB012191222319F08F
S11318A02015D9F7F3CFFB012191201519F41E92CD
S11318B0119606C02223C1F70D900020A1F7D00194
S11318C0FA01A193B08308957AE0979F902D879FA2
S11318D0802D910D11240895CF93DF93CDB7DEB7FA
S11318E0AE01465F5F4F688579858E819F810E9436
S11318F0560DDF91CF9108950F931F93CF93DF93EC
S1131900FB01238121FD03C08FEF9FEF28C022FF3D
S113191016C046815781248135814217530744F408
S1131920A081B1819D012F5F3F4F208331838C9330
S1131930268137812F5F3F4F2683378310C0EB0109
S1131940092F182F0084F185E02D1995892BE1F6D4
S11319508E819F8101968E839F83812F902FDF91AB
S1131960CF911F910F9108958F929F92AF92BF9242
S1131970CF92DF92EF92FF920F931F93CF93DF9357
S11319805B014A017901D90113962C9121FF1DC0F5
S1131990C0E0D0E0C815D905D9F08C016C01CA0C9F
S11319A0DB1CC8010C151D0571F00F5F1F4FD7011B
S11319B01896ED91FC911997B701DC018C9119955A
S11319C0892B79F305C02196E5CF80E090E001C032
S11319D0CE01DF91CF911F910F91FF90EF90DF9097
S11319E0CF90BF90AF909F908F900895CF93DF9347
S11319F0CDB7DEB7AE014A5F5F4FFA0161917191D5
S1131A00AF018091BC2C9091BD2C0E94560DDF91AA
S1131A10CF9108950F931F93CF93DF93E091BC2C44
S1131A20F091BD2C238121FF1BC08C01D0E0C0E0CC
S1131A30F80181918F016091BC2C7091BD2CDB0168
S1131A401896ED91FC911997882331F01995892BFB
S1131A5079F3DFEFCFEFECCF8AE01995892B19F0FA
S1131A608FEF9FEF02C08D2F9C2FDF91CF911F919D
S1131A700F910895CF93DF93CDB7DEB72E97CDBFE7
S1131A80DEBF85E08C838C899D8989839A83AE012E
S1131A90485E5F4F6E897F89CE0101960E94F910DE
S1131AA02E96CDBFDEBFDF91CF9108952F923F9246
S1131AB04F925F926F927F928F929F92AF92BF925A
S1131AC0CF92DF92EF92FF920F931F93CF93DF9306
S1131AD0CDB7DEB72C97CDBFDEBF7C016B018A0189
S1131AE0FC0116821782838181FFBDC1CE0101965C
S1131AF04C01F7019381F60193FD859193FF819148
S1131B006F01882309F4ABC1853239F493FD8591C3
S1131B1093FF81916F01853229F4B70190E00E940F
S1131B207C0CE7CF512C312C20E02032A0F48B32F6
S1131B3069F030F4803259F0833269F420612CC0AA
S1131B408D3239F0803339F4216026C0226024605C
S1131B5023C0286021C027FD27C030ED380F3A305C
S1131B6078F426FF06C0FAE05F9E300D1124532E50
S1131B7013C08AE0389E300D1124332E20620CC02D
S1131B808E3221F426FD6BC1206406C08C3611F41C
S1131B90206802C0883641F4F60193FD859193FFD5
S1131BA081916F018111C1CF982F9F7D95549330FE
S1131BB028F40C5F1F4FFFE3F9830DC0833631F027
S1131BC0833771F0833509F05BC022C0F80180814E
S1131BD089830E5F1F4F44244394512C540115C034
S1131BE03801F2E06F0E711CF801A080B18026FF6D
S1131BF003C0652D70E002C06FEF7FEFC5012C8735
S1131C000E9446122C0183012C852F77222E17C0A7
S1131C103801F2E06F0E711CF801A080B18026FF3C
S1131C2003C0652D70E002C06FEF7FEFC5012C8704
S1131C300E943B122C012C852068222E830123FC58
S1131C401BC0832D90E048165906B0F4B70180E21A
S1131C5090E00E947C0C3A94F4CFF50127FC859126
S1131C6027FE81915F01B70190E00E947C0C311046
S1131C703A94F1E04F1A51084114510471F7E5C048
S1131C80843611F0893639F5F80127FF07C06081E1
S1131C907181828193810C5F1F4F08C060817181C3
S1131CA0072E000C880B990B0E5F1F4F2F76722E98
S1131CB097FF09C090958095709561957F4F8F4FE0
S1131CC09F4F2068722E2AE030E0A4010E94A812DF
S1131CD0A82EA81844C0853729F42F7EB22E2AE0F6
S1131CE030E025C0F22FF97FBF2E8F36C1F018F4F3
S1131CF0883579F0B4C0803719F0883721F0AFC047
S1131D002F2F2061B22EB4FE0DC08B2D8460B82E0F
S1131D1009C024FF0AC09F2F9660B92E06C028E090
S1131D2030E005C020E130E002C020E132E0F801FB
S1131D30B7FE07C060817181828193810C5F1F4F60
S1131D4006C06081718180E090E00E5F1F4FA401A6
S1131D500E94A812A82EA818FB2DFF777F2E76FECE
S1131D600BC0372D3E7FA51450F474FE0AC072FCDC
S1131D7008C0372D3E7E05C0BA2C372D03C0BA2CBF
S1131D8001C0B52C34FF0DC0FE01EA0DF11D8081A8
S1131D90803311F4397E09C032FF06C0B394B39482
S1131DA004C0832F867809F0B39433FD13C030FF49
S1131DB006C05A2CB31418F4530C5B18B32CB31488
S1131DC068F4B70180E290E03C870E947C0CB394F5
S1131DD03C85F5CFB31410F43B1801C0312C34FF0B
S1131DE012C0B70180E390E03C870E947C0C3C85E4
S1131DF032FF17C031FD03C088E790E002C088E5D8
S1131E0090E0B7010CC0832F867859F031FF02C0EF
S1131E108BE201C080E237FD8DE2B70190E00E94C1
S1131E207C0CA51438F4B70180E390E00E947C0C8C
S1131E305A94F7CFAA94F401EA0DF11D8081B701F9
S1131E4090E00E947C0CA110F5CF332009F451CE10
S1131E50B70180E290E00E947C0C3A94F6CFF7013F
S1131E608681978102C08FEF9FEF2C96CDBFDEBF96
S1131E70DF91CF911F910F91FF90EF90DF90CF9062
S1131E80BF90AF909F908F907F906F905F904F9096
S1131E903F902F90089520FD09C0FC0123FD05C04B
S1131EA022FF02C07383628351834083089544FDFB
S1131EB010C046FD10C0DB01FC01AA0FBB1FEE1FC2
S1131EC0FF1F1094D1F76A0F7B1F8E1F9F1F31E0F5
S1131ED003C033E001C034E0660F771F881F991FE9
S1131EE03150D1F7620F711D811D911D08950F931B
S1131EF01F93CF93DF938C01C8010E945112EC0110
S1131F0097FD08C00E942712892BB1F7B801CE01B2
S1131F100E948F12CE01DF91CF911F910F910895EE
S1131F208F929F92AF92BF92CF92DF92EF92FF92E5
S1131F300F931F93CF93DF931F92CDB7DEB78C011E
S1131F40C62E7A0129830E945112AC01552729819A
S1131F504B32510521F04D32510569F42068CA9481
S1131F60C11002C080E076C0C80129830E945112CA
S1131F70298197FDF7CF322F3D7FD32E322F307337
S1131F8049F5803339F5BB24BA94BC0C09F44EC02E
S1131F90C80129830E945112298197FD47C0382F17
S1131FA03F7D383569F48D2D8264D82ECA94CA9445
S1131FB0CC20E1F1C8010E94511297FF0BC036C03A
S1131FC026FF04C02D2D2260D22E03C03D2D326188
S1131FD0D32ECB2C812C912C540120ED280F2830AA
S1131FE080F0D4FE04C0B8010E948F121CC02A30B5
S1131FF040F0D6FEF8CF2F7D3FEE320F363098F703
S113200027504D2DC501B4010E94570F4B015C01AF
S11320108D2D8260D82ECA94CC2059F0C8010E941C
S1132020511297FFDACFD1FC04C09CCF812C912CA4
S11320305401D7FE08C0B094A09490948094811C5D
S1132040911CA11CB11C2D2DB501A401C7010E9436
S11320504B0F81E00F90DF91CF911F910F91FF9073
S1132060EF90DF90CF90BF90AF909F908F900895A6
S11320706F927F928F929F92AF92BF92CF92DF9294
S1132080EF92FF920F931F93CF93DF93CDB7DEB7F9
S1132090A197CDBFDEBF5C017A01CE0101966C0130
S11320A080E2F60111928A95E9F7F501838040E018
S11320B050E0912C712C70E0A1E0B0E0F90183FCB8
S11320C0859183FE81918F01982F9F01811103C017
S11320D080E090E07CC08E3519F44115510549F13A
S11320E0E72FF0E0E417F5073CF48D3559F18D3214
S11320F019F4772001F103C0711001C0982E892FC3
S11321008695869586958601080F111D892F8770FF
S11321103D0101C0660C8A95EAF7F80180818629A1
S11321208083991559F0991510F49F5FE8CF915069
S1132130E6CF71E004C07724739401C0712C4F5F23
S11321405F4FBCCF772019F08E8180628E8371112E
S113215003C09924939416C0F6019E012F5D3F4F4E
S1132160808180958193E217F307D1F7F2CFE114D0
S1132170F10429F0F7018083C70101967C016150C5
S1132180912CF9F0C50169A30E94511269A197FD30
S113219016C0282F269526952695F601E20FF11DE7
S11321A0208130E0AC014770552702C03595279552
S11321B04A95E2F720FDDBCFB5010E948F12911002
S11321C087CFE114F10411F0F7011082C801A19640
S11321D0CDBFDEBFDF91CF911F910F91FF90EF90A4
S11321E0DF90CF90BF90AF909F908F907F906F9033
S11321F008954F925F927F928F929F92AF92BF9277
S1132200CF92DF92EF92FF920F931F93CF93DF93BE
S11322101F92CDB7DEB76C012B015A01FC01168267
S11322201782712CF601F380F201F3FC8591F3FE21
S11322308191382F2F01882309F4F3C090E039836A
S11322400E9427123981892B21F0C6010E94770F41
S1132250E9CF353241F4F201F3FC3591F3FE3191CB
S11322602F01353269F4C60139830E945112398134
S113227097FDD5C03817B1F2B6010E948F12D1C0B4
S11322803A3239F4F3FC3591F3FE31912F0151E0E8
S113229001C050E0420110E020ED230F2A3090F4F9
S11322A05260612F70E080E090E040E259830E9428
S11322B0570F162FF401F3FC3591F3FE31914F01C2
S11322C05981EACF052F232F240151FF03C0111197
S11322D002C0A7C01FEF383619F03C3659F011C0C0
S11322E0F401F3FC2591F3FE21912F01283649F4E2
S11322F0052F08600460F201F3FC2591F3FE21919F
S11323002F01222309F48DC0622F70E08CE092E04B
S113231029830E9430122981892B09F482C000FD8F
S113232007C0F501E080F180C50102965C0102C09E
S1132330E12CF12C2E3651F4F6014681578160E0F0
S113234070E0202FC7010E944B0F6CCF233691F40D
S113235001FF11E0C6010E94511297FD60C0E11413
S1132360F10429F0F7018083C70101967C01115023
S113237089F751C02B3559F49201A701612FC60189
S11323800E9438102C01892B09F045C03FC0C601BA
S113239029830E94770F298197FD41C02F3659F177
S11323A028F4243631F1293649F127C0233769F05E
S11323B02537F9F022C0E114F10429F0F7018082F5
S11323C0C70101967C01115071F0C6010E9451129F
S11323D04C0197FD08C00E942712892B61F3B601B6
S11323E0C4010E948F12E114F104A9F0F7011082D4
S11323F012C0006203C0006101C00064202FA70165
S1132400612FC6010E94900F811105C0F6018381DE
S1132410807329F406C000FD05CF739403CF7720A1
S113242019F0872D90E002C08FEF9FEF0F90DF919E
S1132430CF911F910F91FF90EF90DF90CF90BF90BD
S1132440AF909F908F907F905F904F9008959111DF
S11324500C940613803219F089508550C8F70895FA
S1132460FC010590061621F00020D9F7C00108955B
S11324703197CF010895FC0105906150704001101F
S1132480D8F7809590958E0F9F1F0895FC01615099
S1132490704001900110D8F7809590958E0F9F1F82
S11324A00895CF93DF93EC012B8120FF33C026FFE7
S11324B00AC02F7B2B838E819F8101968E839F83FD
S11324C08A8190E029C022FF0FC0E881F9818081D0
S11324D0082E000C990B009719F420622B831AC064
S11324E03196E883F9830EC0EA85FB85199597FF39
S11324F009C02B81019611F080E201C080E1822B9A
S11325008B8308C02E813F812F5F3F4F2E833F83F3
S1132510992702C08FEF9FEFDF91CF910895FB01C0
S1132520238120FF12C026FD10C08F3F3FEF930789
S113253061F082832F7D206423832681378121509B
S1132540310926833783992708958FEF9FEF0895E4
S1132550FA01AA27283051F1203181F1E8946F93D0
S11325606E7F6E5F7F4F8F4F9F4FAF4FB1E03ED076
S1132570B4E03CD0670F781F891F9A1FA11D680F14
S1132580791F8A1F911DA11D6A0F711D811D911D47
S1132590A11D20D009F468943F912AE0269F1124BC
S11325A03019305D3193DEF6CF010895462F477020
S11325B0405D4193B3E00FD0C9F7F6CF462F4F707B
S11325C0405D4A3318F0495D31FD4052419302D0D9
S11325D0A9F7EACFB4E0A69597958795779567957F
S11325E0BA95C9F700976105710508959B01AC017F
S11325F00A2E06945795479537952795BA95C9F7A6
S1132600620F731F841F951FA01D089599278827A3
S10926100895F894FFCFC9
S113261605100810201003826C1001FE03106C8252
S113262603C8A8980418A0A07805885020508805E7
S113263638C030C03805186080601804788080F887
S113264603087C880490A8A84803F81008041028F6
S113265628F804F8282810047088887004F81008EC
S1132666F005F808F008F001FE04FE205088028008
S11326767A01FA04FE1008F00410A8A87803FC12E4
S1132686020470A8A83004708888FE0470888888BC
S113269604FE88887004708888F802020403808027
S11326A68003040204038282FE030638C003FE820A
S11326B68205C2A2928A86050608F0080605C6287F
S11326C61028C6053EC038C03E050E30C0300E0484
S11326D67E80807E050202FE0202044C929264040D
S11326E6FE1232CC057C82A242BC04FE12120C04F9
S11326F67C82827C05FE041860FE05FE040804FE46
S113270604FE80808005FE10284482044080807E7A
S11327160382FE8204FE1010FE057C829292F4046B
S1132726FE12120204FE92928204FE82827C047CD1
S113273682824404FE92926C05F8141214F8083846
S11327464492AAAABA2418050402A2120C048244CA
S113275628100428282828041028448201C4014487
S1132766054C9292927C056C9292926C050202F24E
S11327760A06057C92929264055E8A8A8A720530FC
S11327862824FE2005448292926C0584C2A2928C6F
S1132796050084FE8000057CA2928A7C03C038066C
S11327A601800310101001C00310381003281028EC
S11327B603824438033844820106056C92AC40A077
S11327C605462610C8C4054854FE54240528FE2888
S11327D6FE280306000601BE020000C821C621C267
S11327E621BC21B621B021AA21A821A421A0219C83
S11327F62198219621922190218C21862180217A6B
S11328062174216E21682162215C21562150214EBA
S1132816214C21472142213D2137212E21282123E4
S1132826211E21192114210F21092104210021FB34
S113283620F520F020EA20E420DF20DA20D420CF7F
S113284620CA20C420BF20B920B320AD20A720A1D0
S1132856209D209920952091208D208A20852080F6
S1132866207B20762071206D206820632061205E05
S1132876205920572051204C20472042203D203902
S113288620342030202B2025201F2019201420102E
S1132896200C200A20062000201C2B49504400004E
S11328A62573000D0D0A2B25395B5E2C5D2C25390D
S11328B65B5E2C5D2C25395B5E3A5D3A25735B5E67
S11328C60A5D0A0054484520444953504C41434547
S11328D64D454E54204953203A2025640A002E259E
S11328E6630A000A25730A25730A25730A25730ADF
S11328F60074657374696E6720776966690041546C
S11329060D0A00200A0D0054455354204F4B005421
S1132916455354204641494C007265736574746985
S11329266E6720776966690041542B5253540A0D29
S11329360054484520535452494E47204C454E476F
S1132946544820495320203A3A3A3A3A3A3A3A3ADB
S11329563A3A3A3A3A3A2025640A00746865207489
S11329666F6B656E203A202564206973202D3E2006
S113297625730A00726561647900524553455420F3
S1132986434F4D504C4554450052455345542045FC
S113299652524F520067657474696E6720455350EE
S11329A6383236362076657273696F6E0041542B61
S11329B6474D520A0D00202D2C0A0D00746865201F
S11329C676657273696F6E203A2025730A00736503
S11329D67474696E672077696669206D6F64652013
S11329E62843574D4F4445290041542B43574D4FD7
S11329F644453D25640A0D00203D2D2C0A0D220078
S1132A0657494649204D4F444520434F4E46494772
S1132A1655524544004641494C4544006368656344
S1132A266B696E672077696669206D6F6465202817
S1132A3643574D4F4445290041542B43574D4F446A
S1132A46453F0A0D003A0A0D0057494649204D4FA5
S1132A564445203D2025730A004C697374696E67EA
S1132A6620417661696C61626C6520415000415475
S1132A762B43574C41500A0D00202B0A0D002829E0
S1132A862C22004A6F696E696E6720417661696C13
S1132A9661626C652041500041542B43574A4150B2
S1132AA63D222573222C222573220A0D00203D2D5A
S1132AB62C0A0D007375636365737366756C6C79A4
S1132AC620636F6E6E656374656420746F2025736E
S1132AD60A00636F6E6E656374696F6E2066616962
S1132AE66C656400636865636B696E6720636F6E0B
S1132AF66E65637465642041500041542B43574A04
S1132B0641503F0A0D005175697474696E6720203F
S1132B1641500041542B43575141500A0D0044493A
S1132B2653434F4E4E454354494F4E20535543430A
S1132B36455346554C0047657474696E6720495081
S1132B4620416464726573730041542B43494653B0
S1132B56520A0D0047657474696E67204D4143201F
S1132B66416464726573730073657474696E672077
S1132B764349504D55583D25640A0041542B434959
S1132B86504D55583D25640A0D007375636365738E
S1132B967366756C6C7920656E61626C6564206D14
S1132BA6756C7469706C6520636F6E6E65637469A9
S1132BB66F6E006572726F7220656E61626C696E0B
S1132BC667206D756C7469706C6520636F6E6E65D5
S1132BD66374696F6E00636865636B696E6720432F
S1132BE649504D55580041542B4349504D55583F73
S1132BF60A0D00203D2D2C0A0D3A22006D756C74C9
S1132C0669706C6520636F6E6E656374696F6E20A0
S1132C16656E61626C6564006D756C7469706C6573
S1132C2620636F6E6E656374696F6E206469736189
S1132C36626C656400636865636B696E6720636FC5
S1132C466E6E656374696F6E207374617475730058
S1132C5641542B4349505354415455530A0D003A99
S1132C66002B0D0A0009636F6E6E6563746564203C
S1132C76646576696365202D2D2D2D2D2D2D2D2D25
S1132C863E3E3E3E2025730A0073657474696E6782
S1132C96207365727665720041542B43495053453F
S1132CA6525645523D312C25640A0D0073657276E1
S1132CB665722073746172746564207375636365E9
S1132CC6737366756C6C79006E6F006368616E670A
S1132CD6650073657276657220616C7265616479EC
S1132CE62072756E6E696E6700636C6F73696E67CA
S1132CF6207365727665720041542B4349505345DF
S1132D06525645523D300A0D007374617274696EF1
S1132D166720636F6E6E656374696F6E0022544339
S1132D2650220022554450220041542B434950530B
S1132D36544152543D25642C25732C222573222C90
S1132D4625640A0D0041542B4349505354415254AF
S1132D563D25732C222573222C25640A0D00636CF1
S1132D666F73696E6720636F6E6E656374696F6EE9
S1132D760041542B434950434C4F53453D25640A67
S1132D860D0041542B434950434C4F53450A0D0003
S1132D9641542B43495053454E443D25642C2564E8
S1132DA60A0D0073657474696E67207365727665BF
S1132DB6722074696D656F75740041542B434950D4
S1132DC653544F3D25640A0D00636865636B696E51
S1132DD667207365727665722074696D656F7574A4
S1132DE60041542B43495053544F3F0A0D00736519
S1132DF6727665722074696D656F757420697320C7
S1132E063A2025640A006372656174696E672063FB
S1132E166F6E6E656374696F6E0041542B4349503F
S1132E2653544152543D22544350222C25732C258D
S1132E36640A0D0041542B43495053544152543DA6
S1132E4622554450222C25732C25640A0D00415426
S1132E562B43495053544152543D25642C544350FA
S1132E662C25732C25640A0D0041542B43495053D9
S1132E76544152543D25642C5544502C25732C251D
S1132E86640A0D00454D4F4E00696E697469616CA4
S1132E96697A696E67207769666900415020494EF0
S1132EA6464F203A25642C25732C25642C25730A59
S1132EB600464F554E442053534944203A20456D0D
S1132EC66F6E00313930333139393200636F756CC6
S1132ED664206E6F742066696E64205353494400FF
S1132EE674686520636F6E6E6563746564205353FE
S1132EF649442069732025730A00594F55204950C7
S1132F0620495320257320616E64204D4143206976
S10F2F16732025730A00444F4E45000050
S9030000FC
